{
  "contractName": "HouseContract",
  "abi": [
    {
      "anonymous": false,
      "inputs": [
        {
          "indexed": false,
          "internalType": "uint256",
          "name": "id",
          "type": "uint256"
        },
        {
          "indexed": false,
          "internalType": "string",
          "name": "title",
          "type": "string"
        },
        {
          "indexed": false,
          "internalType": "string",
          "name": "description",
          "type": "string"
        },
        {
          "indexed": false,
          "internalType": "string",
          "name": "currency",
          "type": "string"
        },
        {
          "indexed": false,
          "internalType": "uint256",
          "name": "amount",
          "type": "uint256"
        },
        {
          "indexed": false,
          "internalType": "bool",
          "name": "done",
          "type": "bool"
        },
        {
          "indexed": false,
          "internalType": "uint256",
          "name": "createdAt",
          "type": "uint256"
        }
      ],
      "name": "HouseCreated",
      "type": "event"
    },
    {
      "inputs": [
        {
          "internalType": "uint256",
          "name": "",
          "type": "uint256"
        }
      ],
      "name": "houses",
      "outputs": [
        {
          "internalType": "uint256",
          "name": "id",
          "type": "uint256"
        },
        {
          "internalType": "string",
          "name": "title",
          "type": "string"
        },
        {
          "internalType": "string",
          "name": "description",
          "type": "string"
        },
        {
          "internalType": "string",
          "name": "currency",
          "type": "string"
        },
        {
          "internalType": "uint256",
          "name": "amount",
          "type": "uint256"
        },
        {
          "internalType": "bool",
          "name": "done",
          "type": "bool"
        },
        {
          "internalType": "uint256",
          "name": "createdAt",
          "type": "uint256"
        }
      ],
      "stateMutability": "view",
      "type": "function",
      "constant": true
    },
    {
      "inputs": [
        {
          "internalType": "uint256",
          "name": "_id",
          "type": "uint256"
        },
        {
          "internalType": "string",
          "name": "_title",
          "type": "string"
        },
        {
          "internalType": "string",
          "name": "_description",
          "type": "string"
        },
        {
          "internalType": "string",
          "name": "_currency",
          "type": "string"
        },
        {
          "internalType": "uint256",
          "name": "_amount",
          "type": "uint256"
        }
      ],
      "name": "createHouse",
      "outputs": [],
      "stateMutability": "nonpayable",
      "type": "function"
    },
    {
      "inputs": [
        {
          "internalType": "uint256",
          "name": "_id",
          "type": "uint256"
        }
      ],
      "name": "toggleDoneTransaction",
      "outputs": [],
      "stateMutability": "nonpayable",
      "type": "function"
    }
  ],
  "bytecode": "0x608060405234801561001057600080fd5b50610b96806100206000396000f3fe608060405234801561001057600080fd5b50600436106100415760003560e01c8063011aba7914610046578063aeda852f14610062578063c59e9a4414610098575b600080fd5b610060600480360381019061005b91906108cd565b6100b4565b005b61007c6004803603810190610077919061099c565b6101df565b60405161008f9796959493929190610a7b565b60405180910390f35b6100b260048036038101906100ad919061099c565b6103c6565b005b6040518060e001604052808681526020018581526020018481526020018381526020018281526020016000151581526020014281525060008087815260200190815260200160002060008201518160000155602082015181600101908051906020019061012292919061069a565b50604082015181600201908051906020019061013f92919061069a565b50606082015181600301908051906020019061015c92919061069a565b506080820151816004015560a08201518160050160006101000a81548160ff02191690831515021790555060c082015181600601559050507fb9217fc9411f498a23ee7ff0c8a126c863877c03a2254feaa9de511b0e121e2c85858585856000426040516101d09796959493929190610a7b565b60405180910390a15050505050565b600060205280600052604060002060009150905080600001549080600101805461020890610b2e565b80601f016020809104026020016040519081016040528092919081815260200182805461023490610b2e565b80156102815780601f1061025657610100808354040283529160200191610281565b820191906000526020600020905b81548152906001019060200180831161026457829003601f168201915b50505050509080600201805461029690610b2e565b80601f01602080910402602001604051908101604052809291908181526020018280546102c290610b2e565b801561030f5780601f106102e45761010080835404028352916020019161030f565b820191906000526020600020905b8154815290600101906020018083116102f257829003601f168201915b50505050509080600301805461032490610b2e565b80601f016020809104026020016040519081016040528092919081815260200182805461035090610b2e565b801561039d5780601f106103725761010080835404028352916020019161039d565b820191906000526020600020905b81548152906001019060200180831161038057829003601f168201915b5050505050908060040154908060050160009054906101000a900460ff16908060060154905087565b60008060008381526020019081526020016000206040518060e0016040529081600082015481526020016001820180546103ff90610b2e565b80601f016020809104026020016040519081016040528092919081815260200182805461042b90610b2e565b80156104785780601f1061044d57610100808354040283529160200191610478565b820191906000526020600020905b81548152906001019060200180831161045b57829003601f168201915b5050505050815260200160028201805461049190610b2e565b80601f01602080910402602001604051908101604052809291908181526020018280546104bd90610b2e565b801561050a5780601f106104df5761010080835404028352916020019161050a565b820191906000526020600020905b8154815290600101906020018083116104ed57829003601f168201915b5050505050815260200160038201805461052390610b2e565b80601f016020809104026020016040519081016040528092919081815260200182805461054f90610b2e565b801561059c5780601f106105715761010080835404028352916020019161059c565b820191906000526020600020905b81548152906001019060200180831161057f57829003601f168201915b50505050508152602001600482015481526020016005820160009054906101000a900460ff1615151515815260200160068201548152505090508060a00151158160a00190151590811515815250508060008084815260200190815260200160002060008201518160000155602082015181600101908051906020019061062492919061069a565b50604082015181600201908051906020019061064192919061069a565b50606082015181600301908051906020019061065e92919061069a565b506080820151816004015560a08201518160050160006101000a81548160ff02191690831515021790555060c082015181600601559050505050565b8280546106a690610b2e565b90600052602060002090601f0160209004810192826106c8576000855561070f565b82601f106106e157805160ff191683800117855561070f565b8280016001018555821561070f579182015b8281111561070e5782518255916020019190600101906106f3565b5b50905061071c9190610720565b5090565b5b80821115610739576000816000905550600101610721565b5090565b6000604051905090565b600080fd5b600080fd5b6000819050919050565b61076481610751565b811461076f57600080fd5b50565b6000813590506107818161075b565b92915050565b600080fd5b600080fd5b6000601f19601f8301169050919050565b7f4e487b7100000000000000000000000000000000000000000000000000000000600052604160045260246000fd5b6107da82610791565b810181811067ffffffffffffffff821117156107f9576107f86107a2565b5b80604052505050565b600061080c61073d565b905061081882826107d1565b919050565b600067ffffffffffffffff821115610838576108376107a2565b5b61084182610791565b9050602081019050919050565b82818337600083830152505050565b600061087061086b8461081d565b610802565b90508281526020810184848401111561088c5761088b61078c565b5b61089784828561084e565b509392505050565b600082601f8301126108b4576108b3610787565b5b81356108c484826020860161085d565b91505092915050565b600080600080600060a086880312156108e9576108e8610747565b5b60006108f788828901610772565b955050602086013567ffffffffffffffff8111156109185761091761074c565b5b6109248882890161089f565b945050604086013567ffffffffffffffff8111156109455761094461074c565b5b6109518882890161089f565b935050606086013567ffffffffffffffff8111156109725761097161074c565b5b61097e8882890161089f565b925050608061098f88828901610772565b9150509295509295909350565b6000602082840312156109b2576109b1610747565b5b60006109c084828501610772565b91505092915050565b6109d281610751565b82525050565b600081519050919050565b600082825260208201905092915050565b60005b83811015610a125780820151818401526020810190506109f7565b83811115610a21576000848401525b50505050565b6000610a32826109d8565b610a3c81856109e3565b9350610a4c8185602086016109f4565b610a5581610791565b840191505092915050565b60008115159050919050565b610a7581610a60565b82525050565b600060e082019050610a90600083018a6109c9565b8181036020830152610aa28189610a27565b90508181036040830152610ab68188610a27565b90508181036060830152610aca8187610a27565b9050610ad960808301866109c9565b610ae660a0830185610a6c565b610af360c08301846109c9565b98975050505050505050565b7f4e487b7100000000000000000000000000000000000000000000000000000000600052602260045260246000fd5b60006002820490506001821680610b4657607f821691505b60208210811415610b5a57610b59610aff565b5b5091905056fea2646970667358221220c11689fc254a30bdb3e2e00627db9b1f5e834302a37a63a3b29afd7b143a3ce964736f6c634300080b0033",
  "immutableReferences": {},
  "source": "// SPDX-License-Identifier: MIT\npragma solidity >=0.4.22 <0.9.0;\n\ncontract HouseContract {\n\n  // constructor () {\n  // createHouse()\n  // }\n\n  event HouseCreated (\n    uint256 id,\n    string title,\n    string description,\n    string currency,\n    uint256 amount,\n    bool done,\n    uint256 createdAt\n  );\n\n  struct House {\n    uint256 id;\n    string title;\n    string description;\n    string currency;\n    uint256 amount;\n    bool done;\n    uint256 createdAt;\n  }\n\n  mapping (uint256 => House) public houses;\n\n  function createHouse (\n    uint _id, \n    string memory _title, \n    string memory _description,\n    string memory _currency,\n    uint256 _amount\n  ) public {\n    houses[_id] = House(_id, _title, _description, _currency, _amount, false, block.timestamp);\n    emit HouseCreated(_id, _title, _description, _currency, _amount, false, block.timestamp);\n  }\n\n  function toggleDoneTransaction (uint _id) public {\n    House memory _house = houses[_id];\n    _house.done = !_house.done;\n    houses[_id] = _house;\n  }\n\n}",
  "sourcePath": "/Users/felipetodev/Documents/Personal/coinbase-next/house-contract/contracts/HouseContract.sol",
  "compiler": {
    "name": "solc",
    "version": "0.8.11+commit.d7f03943.Emscripten.clang"
  },
  "schemaVersion": "3.4.4",
  "updatedAt": "2022-01-29T00:27:43.113Z",
  "networkType": "ethereum",
  "devdoc": {
    "kind": "dev",
    "methods": {},
    "version": 1
  },
  "userdoc": {
    "kind": "user",
    "methods": {},
    "version": 1
  }
}